S01B00004C43445F4C617965726564417263685F4532352E7372656388
S11300000C942A000C943F000C943F000C943F0085
S11300100C943F000C943F000C943F000C943F0060
S11300200C943F000C943F000C943F000C943F0050
S11300300C943F000C943F000C943F000C943F0040
S11300400C943F000C943F000C943F000C943F0030
S11300500C943F0011241FBECFE5D8E0DEBFCDBF16
S113006010E0A0E6B0E0E4E1FAE002C005900D92F1
S1130070A63CB107D9F70E9436020C9408050C94EB
S11300800000982F9770869586958695813021F18A
S113009030F08230F1F1833009F458C008956130B2
S11300A069F44BB321E030E0B90102C0660F771F59
S11300B09A95E2F7CB01842B8BBB08954BB321E0D7
S11300C030E0B90102C0660F771F9A95E2F7CB01C1
S11300D0809584238BBB0895613069F448B321E093
S11300E030E0B90102C0660F771F9A95E2F7CB01A1
S11300F0842B88BB089548B321E030E0B90102C0E5
S1130100660F771F9A95E2F7CB018095842388BB0D
S11301100895613069F445B321E030E0B90102C0CB
S1130120660F771F9A95E2F7CB01842B85BB089560
S113013045B321E030E0B90102C0660F771F9A95FC
S1130140E2F7CB018095842385BB0895613069F47F
S113015042B321E030E0B90102C0660F771F9A95DF
S1130160E2F7CB01842B82BB089542B321E030E057
S1130170B90102C0660F771F9A95E2F7CB0180950B
S1130180842382BB0895813041F028F0823039F015
S1130190833039F008956BBB089568BB089565BB3F
S11301A0089562BB0895813041F028F0823039F01F
S11301B0833039F008C08BB3089588B3089585B3AC
S11301C0089582B3089580E00895E0E6F0E080E0C9
S11301D041E050E0282F2770982F96959695969594
S11301E0913009F130F09230C1F1933009F44FC0ED
S11301F067C09081913059F49AB3BA0102C0660F76
S1130200771F2A95E2F79B01292B2ABB59C03AB3E1
S1130210BA0102C0660F771F2A95E2F7962F9095D0
S113022093239ABB4DC09081913059F497B3BA018E
S113023002C0660F771F2A95E2F79B01292B27BB83
S11302403FC037B3BA0102C0660F771F2A95E2F7A1
S1130250962F9095932397BB33C09081913059F496
S113026094B3BA0102C0660F771F2A95E2F79B0187
S1130270292B24BB25C034B3BA0102C0660F771FF3
S11302802A95E2F7962F9095932394BB19C09081F9
S1130290913059F491B3BA0102C0660F771F2A95C1
S11302A0E2F79B01292B21BB0BC031B3BA0102C079
S11302B0660F771F2A95E2F7962F9095932391BBAB
S11302C08F5F3296803209F085CF0895CF93C82F7F
S11302D060E089E00E94410080E00E94D3008F70BA
S11302E09C2F907F682F692B80E00E94C30060E000
S11302F08BE00E9441008FE891E00197F1F700C084
S1130300000061E08BE00E9441008FE19EE40197D0
S1130310F1F700C0000080E00E94D3008F7090E1EC
S1130320C99F90011124682F622B80E00E94C300B2
S113033060E08BE00E9441008FE891E00197F1F7C3
S113034000C0000061E08BE00E9441008FE39FE168
S11303500197F1F700C00000CF91089560E08AE0B2
S11303600E94410061E08BE00E9441002FEF89EF81
S113037090E0215080409040E1F700C0000083E30A
S11303800E9466018FE891E00197F1F700C0000038
S113039082E30E94660188E20E94660186E00E9470
S11303A066018CE00E94660181E00E946601089566
S11303B0CF93C82F61E089E00E94410080E00E9451
S11303C0D3008F709C2F907F682F692B80E00E9450
S11303D0C30060E08BE00E9441008FE891E0019748
S11303E0F1F700C0000061E08BE00E9441008FE162
S11303F09EE40197F1F700C0000080E00E94D30062
S11304008F7090E1C99F90011124682F622B80E0C6
S11304100E94C30060E08BE00E9441008FE891E0FD
S11304200197F1F700C0000061E08BE00E944100F9
S11304308FE39FE10197F1F700C00000CF91089589
S11304400F931F93CF93FC018081882359F08F0170
S1130450C0E00E94D801CF5FF801EC0FF11D80814C
S11304608111F7CFCF911F910F910895CF93DF930F
S1130470CDB7DEB765970FB6F894DEBF0FBECDBF1C
S113048089E685BD84E183BD0E94E5000E94AE013A
S113049080E482BB10E201E4772473940F2E212CB4
S11304A0F4E23F2EF4EF4F2E512CF02D1FBC1DBC57
S11304B01CBC18BF0EBD08B605FEFDCFC6B4D7B42C
S11304C018BF7EBC08B605FEFDCFE6B4F7B418BF6E
S11304D00EBD08B605FEFDCF86B497B418BF1EBC8A
S11304E0CE14DF0408F058C0E814F90408F054C02E
S11304F08C189D08A12CB12CC201B101A501940155
S11305000E948004CA01B9012AE0AE014F5F5F4F27
S11305100E94AD04B7016C197D0980E090E00E944F
S113052085036B017C01C501B4010E9485039B0115
S1130530AC01C701B6010E94DD0220E030E048ECC6
S113054052E40E9413040E944F03DC01CB014AE0F1
S1130550BE01615F7F4F0E94A20480E80E94660191
S113056080EA90E00E942002CE0101960E942002BF
S113057087EA90E00E94200280EC0E9466018CEAE7
S113058090E00E942002CE010F960E94200283EB8D
S113059090E00E94200207C0872D0E94660187EB2D
S11305A090E00E9420022FEF80E792E021508040EB
S11305B09040E1F700C0000079CF0E94F1020C9452
S11305C0D9030E94D20358F00E94CB0340F029F4CF
S11305D05F3F29F00C94C20351110C940D040C9448
S11305E0C8030E94EA0368F39923B1F3552391F3F6
S11305F0951B550BBB27AA2762177307840738F08E
S11306009F5F5F4F220F331F441FAA1FA9F335D0EA
S11306100E2E3AF0E0E832D091505040E695001C9E
S1130620CAF72BD0FE2F29D0660F771F881FBB1F58
S1130630261737074807AB07B0E809F0BB0B802D36
S1130640BF01FF2793585F4F3AF09E3F510578F062
S11306500C94C2030C940D045F3FE4F3983ED4F36E
S1130660869577956795B795F7959F5FC9F7880F36
S1130670911D9695879597F90895E1E0660F771F88
S1130680881FBB1F621773078407BA0720F0621B19
S1130690730B840BBA0BEE1F88F7E09508950E9444
S11306A056036894B1110C940D0408950E94F2034A
S11306B088F09F5798F0B92F9927B751B0F0E1F01F
S11306C0660F771F881F991F1AF0BA95C9F714C0CF
S11306D0B13091F00E940C04B1E008950C940C0424
S11306E0672F782F8827B85F39F0B93FCCF3869508
S11306F077956795B395D9F73EF490958095709565
S113070061957F4F8F4F9F4F0895E89409C097FBE1
S11307103EF490958095709561957F4F8F4F9F4FD4
S11307209923A9F0F92F96E9BB279395F695879518
S113073077956795B795F111F8CFFAF4BB0F11F4DB
S113074060FF1BC06F5F7F4F8F4F9F4F16C0882382
S113075011F096E911C0772321F09EE8872F762FB8
S113076005C0662371F096E8862F70E060E02AF0F9
S11307709A95660F771F881FDAF7880F96958795E5
S113078097F9089597F99F6780E870E060E008950D
S11307909FEF80EC089500240A9416161706180695
S11307A00906089500240A94121613061406050671
S11307B00895092E0394000C11F4882352F0BB0F02
S11307C040F4BF2B11F460FF04C06F5F7F4F8F4F65
S11307D09F4F089557FD9058440F551F59F05F3FA0
S11307E071F04795880F97FB991F61F09F3F79F04F
S11307F087950895121613061406551FF2CF4695D1
S1130800F1DF08C0161617061806991FF1CF869552
S11308107105610508940895E894BB276627772736
S1130820CB0197F908950E9426040C94D9030E94E1
S1130830CB0338F00E94D20320F0952311F00C94DE
S1130840C2030C94C80311240C940D040E94EA03FF
S113085070F3959FC1F3950F50E0551F629FF0010F
S1130860729FBB27F00DB11D639FAA27F00DB11D28
S1130870AA1F649F6627B00DA11D661F829F2227B1
S1130880B00DA11D621F739FB00DA11D621F839F38
S1130890A00D611D221F749F3327A00D611D231F0E
S11308A0849F600D211D822F762F6A2F11249F575C
S11308B050409AF0F1F088234AF0EE0FFF1FBB1F5F
S11308C0661F771F881F91505040A9F79E3F51051E
S11308D080F00C94C2030C940D045F3FE4F3983E43
S11308E0D4F3869577956795B795F795E7959F5FC8
S11308F0C1F7FE2B880F911D9695879597F908955A
S1130900A1E21A2EAA1BBB1BFD010DC0AA1FBB1F0F
S1130910EE1FFF1FA217B307E407F50720F0A21B81
S1130920B30BE40BF50B661F771F881F991F1A94EE
S113093069F760957095809590959B01AC01BD0118
S1130940CF010895BB274A3031F4992322F4BDE244
S1130950909581959F4F0C94DF04BB272A3051F466
S1130960992342F4BDE290958095709561957F4FEF
S11309708F4F9F4F0C94BD04BB27FA01A62F62171B
S1130980710581059105330B30FB66F0AA27660FCC
S1130990771F881F991FAA1FA21710F0A21B639527
S11309A03850A9F7A05DAA3308F0A95DA19336F7E2
S11309B0B111B1931082CA010C94F804BB27FB0156
S11309C05527AA27880F991FAA1FA41710F0A41B44
S11309D083955051B9F7A05DAA3308F0A95DA1939E
S11309E0009779F7B111B1931192CB010C94F804EB
S11309F0DC01FC01672F71917723E1F7329704C082
S1130A007C916D9370836291AE17BF07C8F308950C
S1070A10F894FFCF84
S1130A1401010101010101010101010101010101BE
S1130A2401010101010101010101010101010101AE
S1130A34010101010101010101010101010101019E
S1130A44010101010101010101010101000101018F
S1130A54467265713A200020487A200044757479FE
S1130A643A2000202520004F5554204F462052415F
S1090A744E47452121005C
S9030000FC
